:100000000C9434000C9451000C9451000C94510049
:100010000C9402010C9451000C9451000C9451006A
:100020000C9451000C9451000C9451000C9451000C
:100030000C9451000C9451000C9451000C945100FC
:100040000C943C010C9451000C9451000C94510000
:100050000C9451000C941C010C9451000C94510010
:100060000C9451000C94510011241FBECFEFD8E026
:10007000DEBFCDBF11E0A0E0B1E0ECEAF2E002C0EB
:1000800005900D92A431B107D9F721E0A4E1B1E0C8
:1000900001C01D92A931B207E1F70E94EE000C9455
:1000A00054010C94000014BC85B5836085BD80911B
:1000B000100186BDEEE6F0E08081816080830895C6
:1000C000ECE7F0E010828081826080838081806232
:1000D0008083808180648083EAE7F0E01082808101
:1000E0008B6880838081806480830895F894E1E642
:1000F000F0E080E8808380818460808317B888B1D5
:10010000836088B988B18B7F88B98FEF8AB91BB8B3
:1001100084B18F6084B915B8E8E6F0E08081826030
:100120008083ECE6F0E08081836080830E94600041
:100130000E9453001092C10078940895841309C05E
:1001400090911801923029F410921801862F90E0B6
:100150000895861309C090911801913029F41092E6
:100160001801842F90E0089590911801913029F49E
:100170008F5F1092180190E00895923029F4815019
:100180001092180190E0089590E00895813091F068
:1001900018F08230C9F00895409116016091120163
:1001A000809117010E949E00809317018BB984E013
:1001B00085B90895E0911401F0E0E050FF4F80818F
:1001C0008BB981E085B90895E0911501F0E0E05028
:1001D000FF4F80818BB982E085B908950E94760037
:1001E000809111010E94C6009091790080911701C1
:1001F000891720F485B1886085B9F2CF85B1877FF2
:1002000085B9EECF1F920F920FB60F9211248F93E4
:10021000309904C081E08093180108C0319904C06E
:1002200082E08093180102C0109218018F910F9004
:100230000FBE0F901F9018951F920F920FB60F923E
:1002400011248F93EF93FF93E9E7F0E080818F70A3
:1002500080931501808182958F7080931401EAE765
:10026000F0E0808180648083FF91EF918F910F9007
:100270000FBE0F901F9018951F920F920FB60F92FE
:1002800011248F938091100186BD809111018F5FA1
:1002900080931101833011F4109211018F910F900E
:0C02A0000FBE0F901F901895F894FFCF30
:1002AC00F381EAE999797BC1FBF9DB3B72AB7A5AB2
:0402BC00D001FF006E
:00000001FF
