:100000000C9434000C9451000C9451000C94510049
:100010000C9406010C9451000C9451000C94510066
:100020000C9451000C9451000C9451000C9451000C
:100030000C9451000C9451000C9451000C945100FC
:100040000C9440010C9451000C9451000C945100FC
:100050000C9451000C9420010C9451000C9451000C
:100060000C9451000C94510011241FBECFEFD8E026
:10007000DEBFCDBF11E0A0E0B1E0E4EBF2E002C0F2
:1000800005900D92A431B107D9F721E0A4E1B1E0C8
:1000900001C01D92AA31B207E1F70E94F2000C9450
:1000A00058010C94000014BC85B5836085BD809117
:1000B000100186BDEEE6F0E08081816080830895C6
:1000C000ECE7F0E010828081826080838081806232
:1000D0008083808180648083EAE7F0E01082808101
:1000E0008B6880838081806480830895F894E1E642
:1000F000F0E080E8808380818460808317B888B1D5
:10010000836088B988B18B7F88B98FEF8AB91BB8B3
:1001100084B18F6084B915B8E8E6F0E08081826030
:100120008083ECE6F0E08081836080830E94600041
:100130000E9453001092C10078940895841309C05E
:1001400090911901923029F410921901862F90E0B4
:100150000895861309C090911901913029F41092E5
:100160001901842F90E0089590911901913029F49C
:100170008F5F1092190190E00895923029F4815018
:100180001092190190E0089590E00895813091F067
:1001900018F08230D9F00895409117016091120152
:1001A000809118010E949E00809318018BB984E011
:1001B00085B90895E0911501F0E0E050FF4F80818E
:1001C000809314018BB981E085B90895E0911601FF
:1001D000F0E0E050FF4F8081809314018BB982E002
:1001E00085B908950E947600809111010E94C60091
:1001F0009091790080911801891720F485B1886069
:1002000085B9F2CF85B1877F85B9EECF1F920F9266
:100210000FB60F9211248F93309904C081E0809320
:10022000190108C0319904C082E08093190102C00D
:10023000109219018F910F900FBE0F901F9018957B
:100240001F920F920FB60F9211248F93EF93FF938B
:10025000E9E7F0E080818F708093160180818295BC
:100260008F7080931501EAE7F0E0808180648083DD
:10027000FF91EF918F910F900FBE0F901F901895E7
:100280001F920F920FB60F9211248F93809110013D
:1002900086BD809111018F5F80931101833011F42D
:1002A000109211018F910F900FBE0F901F90189513
:0402B000F894FFCFF0
:1002B400F381EAE999797BC1FBF9DB3B72AB7A5AAA
:0402C400D001FF0066
:00000001FF
