:100000000C9434000C9451000C9451000C94510049
:100010000C94F5000C9451000C9451000C94510078
:100020000C9451000C9451000C9451000C9451000C
:100030000C9451000C9451000C9451000C945100FC
:100040000C9465010C9451000C9451000C945100D7
:100050000C9451000C940F010C9451000C9451001D
:100060000C9451000C94510011241FBECFEFD8E026
:10007000DEBFCDBF11E0A0E0B1E0ECEFF2E002C0E6
:1000800005900D92A231B107D9F721E0A2E1B1E0CC
:1000900001C01D92A831B207E1F70E94EE000C9456
:1000A0007C010C94000014BC82E085BD85E086BD17
:1000B000EEE6F0E08081816080830895ECE7F0E077
:1000C00010828081826080838081806280838081D1
:1000D00080648083EAE7F0E0108280818B6880830F
:1000E0008081806480830895F894E1E6F0E080E800
:1000F000808380818460808317B888B1836088B9E9
:1001000088B18B7F88B98FEF8AB91BB884B18760BB
:1001100084B915B8E8E6F0E0808182608083ECE67F
:10012000F0E08081836080830E945E000E94530023
:1001300078940895841309C090911701923029F49E
:1001400010921701862F90E00895861309C09091B0
:100150001701913029F410921701842F90E008952F
:1001600090911701913029F48F5F1092170190E060
:100170000895923029F481501092170190E008956B
:1001800090E00895813091F018F08230D9F0089510
:100190004091150160911101809116010E949A0011
:1001A000809316018BB984E085B90895E09113011D
:1001B000F0E0E050FF4F8081809312018BB981E025
:1001C00085B90895E0911401F0E0E050FF4F80817F
:1001D000809312018BB982E085B908950E94740062
:1001E000809110010E94C200FBCF1F920F920FB6A8
:1001F0000F9211248F93309904C081E080931701EE
:1002000008C0319904C082E08093170102C01092A7
:1002100017018F910F900FBE0F901F9018951F928E
:100220000F920FB60F9211248F93EF93FF93E9E78C
:10023000F0E080818F7080931401808184FF06C07C
:100240008091130181608093130105C08091130197
:100250008E7F809313018091790085FF06C0809185
:10026000130182608093130105C0809113018D7F7B
:10027000809313018091790086FF06C0809113015D
:1002800084608093130105C0809113018B7F80935C
:10029000130180917900882334F4809113018860E0
:1002A0008093130105C080911301877F8093130110
:1002B000EAE7F0E0808180648083FF91EF918F9185
:1002C0000F900FBE0F901F9018951F920F920FB6B0
:1002D0000F9211248F9385E086BD809110018F5F6E
:1002E00080931001833011F4109210018F910F90C0
:0C02F0000FBE0F901F901895F894FFCFE0
:1002FC00F381EAE999797BC1FBF9DB3B72AB7A5A62
:02030C0001FFEF
:00000001FF
