S00F00005072656C6162352E737265638A
S11300000C9434000C9446000C9446000C94460066
S11300100C9446000C9446000C9446000C94460044
S11300200C9446000C9446000C9446000C94460034
S11300300C9446000C9446000C9446000C94460024
S11300400C9446000C9446000C9446000C94460014
S11300500C9446000C946E000C9446000C944600DC
S11300600C9446000C94460011241FBECFEFD8E038
S1130070DEBFCDBF21E0A0E0B1E001C01D92A330FE
S1130080B207E1F70E946B000C94FF000C9400008F
S1130090ECE7F0E01082808180668083EAE7F0E09C
S11300A0108280818B68808380818064808308953E
S11300B0F894E1E6F0E080E88083808184608083C6
S11300C084B1826084B91092C1000E9448000E94E9
S11300D0AF00789408950E945800FFCF1F920F92AA
S11300E00FB60F9211242F933F934F935F936F9307
S11300F07F938F939F93AF93BF93EF93FF938091DD
S11301007900809300010E949F00909302018093E4
S11301100101EAE7F0E0808180648083FF91EF9140
S1130120BF91AF919F918F917F916F915F914F910B
S11301303F912F910F900FBE0F901F901895282F6D
S113014030E0ADE7B0E00E94F0002FEF30E040E097
S113015050E00E94CE00C90183589F4F0895A0E843
S1130160B0E01C92E1E8F0E010828C9180688C93FE
S11301708C9182608C93808188618083808182608D
S1130180808385E490E0909389008093880088E3DD
S113019091E090938700809386000895A1E21A2E3F
S11301A0AA1BBB1BFD010DC0AA1FBB1FEE1FFF1F17
S11301B0A217B307E407F50720F0A21BB30BE40B67
S11301C0F50B661F771F881F991F1A9469F76095AE
S11301D07095809590959B01AC01BD01CF01089568
S11301E0A29FB001B39FC001A39F700D811D112474
S11301F0911DB29F700D811D1124911D0895F894D5
S1050200FFCF2A
S9030000FC
