:100000000C944B000C945D000C945D000C945D000E
:100010000C945D000C945D000C945D000C945D00EC
:100020000C945D000C945D000C945D000C945D00DC
:100030000C945D000C945D000C945D000C945D00CC
:100040000C94B0010C945D000C945D000C945D0068
:100050000C945D000C944C010C945D000C945D00BC
:100060000C945D000C945D00B70088008E00940035
:100070009A00A000A600AC00100216021C0280022A
:1000800022022D0238024302490254025F0280021A
:1000900080026A02750211241FBECFEFD8E0DEBFD6
:1000A000CDBF21E0A0E0B1E001C01D92A630B207B3
:1000B000E1F70E9430010C9410030C9400000F93A0
:1000C00010927C00811106C0ACE7B0E08C918F7D6E
:1000D0008C9305C0ACE7B0E08C9180628C9361306A
:1000E00019F0653039F00BC0ACE7B0E08C91806C52
:1000F0008C9305C0ACE7B0E08C9180648C9350E0A9
:100100004830510578F5FA01EC5CFF4F0C940A0376
:10011000ECE7F0E080818160808329C0ECE7F0E0CB
:1001200080818260808323C0ECE7F0E0808183607F
:1001300080831DC0ECE7F0E080818460808317C07D
:10014000ECE7F0E080818560808311C0ECE7F0E0AF
:100150008081866080830BC0ECE7F0E0808187605F
:10016000808305C0ECE7F0E0808186608083109298
:100170007A00211106C0EAE7F0E08081877F808362
:1001800005C0EAE7F0E08081886080830031D9F023
:1001900038F4043061F0083081F0023061F530C08D
:1001A0000034E9F0003809F1003229F512C0EAE71D
:1001B000F0E080818260808323C0EAE7F0E0808104
:1001C000836080831DC0EAE7F0E0808184608083E3
:1001D00017C0EAE7F0E080818560808311C0EAE71C
:1001E000F0E08081866080830BC0EAE7F0E08081E8
:1001F0008760808305C0EAE7F0E0808187608083C4
:10020000EAE7F0E08081806C80830F9108950F937E
:100210001F93F8941092C10017B818B814B884B19D
:100220008E6084B915B80FE31CE928E030E04EE099
:1002300060E082E00E94D0014091050100E821E0E9
:1002400065E081E00E945F0021E040E06FE588E02A
:1002500090E00E94C70216BC78941F910F910895F8
:100260000E9407019091000180910101981720F4EC
:1002700085B1886085B909C0909100018091010124
:10028000981718F085B1877F85B98FE99FE00197AE
:10029000F1F700C00000E6CF1F920F920FB60F9249
:1002A00011240F932F933F934F935F936F937F93FB
:1002B0008F939F93AF93BF93EF93FF9380917900B8
:1002C00080930401809104010E94C901909303016D
:1002D0008093020180910501813069F018F082302D
:1002E00099F018C0809102019091030190938B00C6
:1002F00080938A000FC08091020190910301909336
:1003000089008093880006C0809104010E9409033F
:100310008093010180910501823018F0109205014F
:1003200005C0809105018F5F809305014091050113
:1003300000E821E065E081E00E945F00FF91EF911D
:10034000BF91AF919F918F917F916F915F914F91ED
:100350003F912F910F910F900FBE0F901F90189506
:100360001F920F920FB60F9211248F93809100016C
:100370008F5F80930001809100018F3F11F41092F4
:1003800000018FE586BD8F910F900FBE0F901F90DB
:1003900018952FE0829FC00111248E509C4F089524
:1003A0000F931F93109280001092810081110EC054
:1003B000611106C0A0E8B0E08C9180628C9325C0EA
:1003C000A0E8B0E08C9180638C931FC0813071F401
:1003D000611106C0A0E8B0E08C9180688C9315C0D4
:1003E000A0E8B0E08C91806C8C930FC0823069F4EF
:1003F000611106C0A0E8B0E08C91806A8C9305C0C2
:10040000A0E8B0E08C91806F8C9350E0FA013197B6
:10041000EF30F10508F074C0E45CFF4F0C940A0360
:10042000E0E8F0E080818160808374C0E0E8F0E083
:100430008081826080836EC0E0E8F0E0808183602C
:10044000808368C0E0E8F0E0808181608083E1E83B
:10045000F0E08081886080835DC0E0E8F0E080812A
:1004600082608083E1E8F0E080818860808352C010
:10047000E0E8F0E0808183608083E1E8F0E0808163
:100480008860808347C0E1E8F0E0808180618083FC
:1004900041C0E1E8F0E0808180618083E0E8F0E045
:1004A00080818160808336C0E1E8F0E080818061F6
:1004B0008083E0E8F0E08081826080832BC0E0E808
:1004C000F0E0808183608083E1E8F0E080818061FA
:1004D000808320C0E0E8F0E0808182608083E1E8F2
:1004E000F0E080818861808315C0E0E8F0E08081E1
:1004F00083608083E1E8F0E08081886180830AC0C6
:10050000E0E8F0E0808182608083E1E8F0E08081D3
:100510008861808320343105E1F038F421303105E1
:1005200061F02830310579F026C0211581E03807C7
:10053000B1F021153440C9F01EC0E1E8F0E080813F
:10054000816080831DC0E1E8F0E08081826080836B
:1005500017C0E1E8F0E080818360808311C0E1E8AA
:10056000F0E08081846080830BC0E1E8F0E080816E
:100570008560808305C0E1E8F0E08081887F80832A
:1005800010938700009386001F910F91089514BC6B
:1005900015BC17BC16BC10926E00413061F434B526
:1005A000326034BD213029F4EEE6F0E02081226093
:1005B000208367BD08C0213029F4EEE6F0E02081F9
:1005C0002160208366BD80349105B9F030F481301C
:1005D000910559F0089769F00895811521E0920777
:1005E00081F08115944089F0089585B5816085BDBD
:1005F000089585B5826085BD089585B5836085BD04
:10060000089585B5846085BD089585B5816085BDF3
:1006100008950895EE0FFF1F0590F491E02D0994C1
:04062000F894FFCF7C
:00000001FF
