:100000000C944B000C9468000C9468000C946800ED
:100010000C9468000C9468000C9468000C946800C0
:100020000C9468000C9468000C9468000C946800B0
:100030000C9468000C9468000C9468000C946800A0
:100040000C9468000C9468000C9468000C94680090
:100050000C9468000C9462010C9468000C94680085
:100060000C9468000C946800C200930099009F00F3
:10007000A500AB00B100B700E601EC01F2015602A9
:10008000F80103020E0219021F022A02350256026B
:10009000560240024B0211241FBECFEFD8E0DEBF54
:1000A000CDBF11E0A0E0B1E0E0E5F5E002C00590D1
:1000B0000D92A630B107D9F721E0A6E0B1E001C06A
:1000C0001D92AA30B207E1F70E9419010C94A60212
:1000D0000C9400000F9310927C00811106C0ACE7D5
:1000E000B0E08C918F7D8C9305C0ACE7B0E08C9133
:1000F00080628C93613019F0653039F00BC0ACE749
:10010000B0E08C91806C8C9305C0ACE7B0E08C9132
:1001100080648C9350E04830510578F5FA01EC5C2E
:10012000FF4F0C94A002ECE7F0E0808181608083B7
:1001300029C0ECE7F0E080818260808323C0ECE797
:10014000F0E08081836080831DC0ECE7F0E0808177
:100150008460808317C0ECE7F0E080818560808355
:1001600011C0ECE7F0E08081866080830BC0ECE793
:10017000F0E080818760808305C0ECE7F0E080815B
:100180008660808310927A00211106C0EAE7F0E0D1
:100190008081877F808305C0EAE7F0E08081886006
:1001A00080830031D9F038F4043061F0083081F0F8
:1001B000023061F530C00034E9F0003809F1003256
:1001C00029F512C0EAE7F0E080818260808323C0D5
:1001D000EAE7F0E08081836080831DC0EAE7F0E019
:1001E00080818460808317C0EAE7F0E080818560C9
:1001F000808311C0EAE7F0E08081866080830BC0D5
:10020000EAE7F0E080818760808305C0EAE7F0E0FC
:10021000808187608083EAE7F0E08081806C808362
:100220000F910895F8941092C10017B818B87894F7
:1002300008950E94120181E0809309014091090113
:100240000091030121E065E00E946A0080910901AC
:1002500000910001109101012091040130910501EC
:100260004091020160E00E94B4012FEF89E698E11D
:10027000215080409040E1F700C000001092090139
:10028000409109010091030121E065E081E00E94B5
:100290006A008091090100910001109101012091F3
:1002A0000401309105014091020160E00E94B40117
:1002B0002FEF89E698E1215080409040E1F700C09F
:1002C0000000B9CF1F920F920FB60F9211242F93F7
:1002D0003F934F935F936F937F938F939F93AF93CE
:1002E000BF93EF93FF9380917900809308018091F1
:1002F00008010E94AD01909307018093060180914F
:100300000901882319F0813051F011C08091060154
:100310009091070190938B0080938A0008C0809190
:100320000601909107019093890080938800EAE785
:10033000F0E0808180648083FF91EF91BF91AF9165
:100340009F918F917F916F915F914F913F912F91ED
:100350000F900FBE0F901F9018952FE0829FC00145
:1003600011248E509C4F08950F931F93109280007C
:100370001092810014B815B881110EC0611106C029
:10038000A0E8B0E08C9180628C9315C0A0E8B0E04A
:100390008C9180638C930FC0813069F4611106C029
:1003A000A0E8B0E08C9180688C9305C0A0E8B0E034
:1003B0008C91806C8C9350E0FA013197EF30F1050D
:1003C00008F074C0E45CFF4F0C94A002E0E8F0E099
:1003D00080818160808374C0E0E8F0E08081826089
:1003E00080836EC0E0E8F0E080818360808368C035
:1003F000E0E8F0E0808181608083E1E8F0E08081E6
:10040000886080835DC0E0E8F0E080818260808366
:10041000E1E8F0E080818860808352C0E0E8F0E0AD
:10042000808183608083E1E8F0E080818860808360
:1004300047C0E1E8F0E080818061808341C0E1E86D
:10044000F0E0808180618083E0E8F0E0808181607D
:10045000808336C0E1E8F0E0808180618083E0E85D
:10046000F0E08081826080832BC0E0E8F0E0808152
:1004700083608083E1E8F0E080818061808320C038
:10048000E0E8F0E0808182608083E1E8F0E0808154
:100490008861808315C0E0E8F0E08081836080831C
:1004A000E1E8F0E08081886180830AC0E0E8F0E064
:1004B000808182608083E1E8F0E0808188618083D0
:1004C00020343105E1F038F42130310561F0283075
:1004D000310579F026C0211581E03807B1F02115EA
:1004E0003440C9F01EC0E1E8F0E080818160808383
:1004F0001DC0E1E8F0E080818260808317C0E1E800
:10050000F0E080818360808311C0E1E8F0E08081C9
:10051000846080830BC0E1E8F0E0808185608083A7
:1005200005C0E1E8F0E08081887F80831093870038
:100530000093860084B18E6084B91F910F91089555
:10054000EE0FFF1F0590F491E02D0994F894FFCF72
:060550003F9C0E80080034
:00000001FF
