S00F00005072656C6162352E737265638A
S11300000C9434000C9446000C9446000C94460066
S11300100C9446000C9446000C9446000C94460044
S11300200C9446000C9446000C9446000C94460034
S11300300C9446000C9446000C9446000C94460024
S11300400C9446000C9446000C9446000C94460014
S11300500C9446000C9468000C9446000C944600E2
S11300600C9446000C94460011241FBECFEFD8E038
S1130070DEBFCDBF21E0A0E0B1E001C01D92A330FE
S1130080B207E1F70E9465000C9403010C94000090
S1130090ECE7F0E01082808180668083EAE7F0E09C
S11300A0108280818B68808380818064808308953E
S11300B0F89484B1826084B915B81092C1000E948A
S11300C048000E94B300789408950E945800FFCF1E
S11300D01F920F920FB60F9211242F933F934F93B9
S11300E05F936F937F938F939F93AF93BF93EF939C
S11300F0FF9380917900809300010E94A300909364
S11301000201809301019093890080938800EAE7BB
S1130110F0E08081806480838FE99FE00197F1F7AC
S113012000C00000FF91EF91BF91AF919F918F911B
S11301307F916F915F914F913F912F910F900FBEDF
S11301400F901F901895282F30E0AFEEB0E00E947A
S1130150F4002FEF30E040E050E00E94D200C901EB
S11301608B5B9F4F0895A0E8B0E01C92E1E8F0E0BB
S113017010828C9180688C938C9182608C938081A6
S11301808861808380818260808383E790E090939C
S113019089008093880083EC99E090938700809392
S11301A086000895A1E21A2EAA1BBB1BFD010DC0F7
S11301B0AA1FBB1FEE1FFF1FA217B307E407F50713
S11301C020F0A21BB30BE40BF50B661F771F881FEF
S11301D0991F1A9469F760957095809590959B0185
S11301E0AC01BD01CF010895A29FB001B39FC0012E
S11301F0A39F700D811D1124911DB29F700D811D4F
S10D02001124911D0895F894FFCF16
S9030000FC
