:100000000C9434000C9446000C9446000C9446006A
:100010000C9446000C9446000C9446000C94460048
:100020000C9446000C9446000C9446000C94460038
:100030000C9446000C9446000C9446000C94460028
:100040000C9446000C9446000C9446000C94460018
:100050000C9446000C9484000C9446000C944600CA
:100060000C9446000C94460011241FBECFEFD8E03C
:10007000DEBFCDBF21E0A0E0B1E001C01D92A13004
:10008000B207E1F70E9481000C949D000C940000DF
:10009000ECE7F0E01082808180668083EAE7F0E0A0
:1000A000108280818B6880830895A0E8B0E01C9264
:1000B000E1E8F0E010828C9180688C938C918260F2
:1000C0008C9380818861808380818260808389E9CC
:1000D00099E190938700809386000895F894E1E673
:1000E000F0E080E880838081846080838EE084B942
:1000F00015B81092C1000E9448000E9455007894E3
:1001000008950E946E00FFCF1F920F920FB60F92BC
:1001100011248F93EF93FF938091790080930001D6
:10012000EAE7F0E0808180648083FF91EF918F9116
:0E0130000F900FBE0F901F901895F894FFCF00
:00000001FF
