S00F00005072656C6162352E737265638A
S11300000C944B000C9468000C9468000C946800E9
S11300100C9468000C9468000C9468000C946800BC
S11300200C9468000C9468000C9468000C946800AC
S11300300C9468000C9468000C9468000C9468009C
S11300400C9468000C9468000C9468000C9468008C
S11300500C9468000C943D010C9468000C946800A6
S11300600C9468000C946800C200930099009F00EF
S1130070A500AB00B100B700D701DD01E3014702E1
S1130080E901F401FF010A0210021B0226024702E1
S1130090470231023C0211241FBECFEFD8E0DEBF7D
S11300A0CDBF11E0A0E0B1E0E2E3F5E002C00590CD
S11300B00D92A830B107D9F721E0A8E0B1E001C062
S11300C01D92AB30B207E1F70E9434010C94970201
S11300D00C9400000F9310927C00811106C0ACE7D1
S11300E0B0E08C918F7D8C9305C0ACE7B0E08C912F
S11300F080628C93613019F0653039F00BC0ACE745
S1130100B0E08C91806C8C9305C0ACE7B0E08C912E
S113011080648C9350E04830510578F5FA01EC5C2A
S1130120FF4F0C949102ECE7F0E0808181608083C2
S113013029C0ECE7F0E080818260808323C0ECE793
S1130140F0E08081836080831DC0ECE7F0E0808173
S11301508460808317C0ECE7F0E080818560808351
S113016011C0ECE7F0E08081866080830BC0ECE78F
S1130170F0E080818760808305C0ECE7F0E0808157
S11301808660808310927A00211106C0EAE7F0E0CD
S11301908081877F808305C0EAE7F0E08081886002
S11301A080830031D9F038F4043061F0083081F0F4
S11301B0023061F530C00034E9F0003809F1003252
S11301C029F512C0EAE7F0E080818260808323C0D1
S11301D0EAE7F0E08081836080831DC0EAE7F0E015
S11301E080818460808317C0EAE7F0E080818560C5
S11301F0808311C0EAE7F0E08081866080830BC0D1
S1130200EAE7F0E080818760808305C0EAE7F0E0F8
S1130210808187608083EAE7F0E08081806C80835E
S11302200F9108950F931F93F8941092C10017B87B
S113023018B800910101109102012091050130913B
S113024006014091030160E081E00E949501409124
S113025000010091040121E065E081E00E946A0050
S113026078941F910F9108950E9412018FE99FE0E5
S11302700197F1F700C00000F9CF1F920F920FB65B
S11302800F9211240F932F933F934F935F936F9388
S11302907F938F939F93AF93BF93EF93FF9380913B
S11302A0790080930A0180910A010E948E01909343
S11302B009018093080180910001882319F081309D
S11302C051F011C0809108019091090190938B0025
S11302D080938A0008C0809108019091090190934D
S11302E0890080938800409100010091040121E07D
S11302F065E081E00E946A00FF91EF91BF91AF91A8
S11303009F918F917F916F915F914F913F912F9129
S11303100F910F900FBE0F901F9018952FE0829FA2
S1130320C00111248E509C4F08950F931F93109277
S113033080001092810014B815B881110EC06111AB
S113034006C0A0E8B0E08C9180628C9325C0A0E840
S1130350B0E08C9180638C931FC0813071F4611183
S113036006C0A0E8B0E08C9180688C9315C0A0E82A
S1130370B0E08C91806C8C930FC0823069F4611171
S113038006C0A0E8B0E08C91806A8C9305C0A0E818
S1130390B0E08C91806F8C9350E0FA013197EF308C
S11303A0F10508F074C0E45CFF4F0C949102E0E89E
S11303B0F0E080818160808374C0E0E8F0E08081B7
S11303C0826080836EC0E0E8F0E080818360808397
S11303D068C0E0E8F0E0808181608083E1E8F0E0DB
S11303E08081886080835DC0E0E8F0E08081826085
S11303F08083E1E8F0E080818860808352C0E0E897
S1130400F0E0808183608083E1E8F0E080818860AF
S1130410808347C0E1E8F0E080818061808341C04F
S1130420E1E8F0E0808180618083E0E8F0E08081B1
S11304308160808336C0E1E8F0E080818061808360
S1130440E0E8F0E08081826080832BC0E0E8F0E0A7
S1130450808183608083E1E8F0E080818061808333
S113046020C0E0E8F0E0808182608083E1E8F0E091
S113047080818861808315C0E0E8F0E0808183603A
S11304808083E1E8F0E08081886180830AC0E0E84D
S1130490F0E0808182608083E1E8F0E0808188611F
S11304A0808320343105E1F038F42130310561F0E6
S11304B02830310579F026C0211581E03807B1F0E4
S11304C021153440C9F01EC0E1E8F0E0808181606C
S11304D080831DC0E1E8F0E080818260808317C0E2
S11304E0E1E8F0E080818360808311C0E1E8F0E01E
S11304F08081846080830BC0E1E8F0E080818560C6
S1130500808305C0E1E8F0E08081887F80831093D8
S113051087000093860084B18E6084B91F910F9187
S11305200895EE0FFF1F0590F491E02D0994F894BF
S1050530FFCFF7
S10B0532013F9C0E800800004B
S9030000FC
