S01000005072656C616230342E737265635A
S11300000C9434000C9451000C9451000C94510045
S11300100C94A3000C9451000C9451000C945100C6
S11300200C9451000C9451000C9451000C94510008
S11300300C9451000C9451000C9451000C945100F8
S11300400C9451000C9451000C9451000C945100E8
S11300500C9451000C9451000C9451000C945100D8
S11300600C9451000C94510011241FBECFEFD8E022
S1130070DEBFCDBF11E0A0E0B1E0EEE7F1E002C0E9
S113008005900D92A230B107D9F721E0A2E0B1E0CA
S113009001C01D92A530B207E1F70E9493000C94B1
S11300A0BD000C940000F89417B888B1836088B937
S11300B08FEF8AB91BB884B1876084B915B8E8E6B4
S11300C0F0E0808182608083ECE6F0E080818360F0
S11300D0808378940895841309C090910401923028
S11300E029F410920401862F90E00895861309C024
S11300F090910401913029F410920401842F90E02E
S1130100089590910401913029F48F5F10920401B5
S113011090E00895923029F481501092040190E007
S1130120089590E008950E94530084E085B94091B9
S1130130020160910001809103010E946B00809391
S113014003018BB9F2CF1F920F920FB60F921124B5
S11301508F93309904C081E08093040108C03199E1
S113016004C082E08093040102C0109204018F91C4
S11101700F900FBE0F901F901895F894FFCFBC
S105017EFF007C
S9030000FC
