S00C00004C4142362E7372656313
S11300000C9434000C9446000C9446000C94460066
S11300100C9446000C9446000C9446000C94460044
S11300200C9446000C9446000C9446000C94460034
S11300300C9446000C9446000C9446000C94460024
S11300400C9446000C9446000C9497000C944600C3
S11300500C9446000C9446000C9446000C94460004
S11300600C9446000C94460011241FBECFEFD8E038
S1130070DEBFCDBF21E0A0E0B1E001C01D92A13000
S1130080B207E1F70E9473000C94CE000C940000B8
S11300901AB88AB1826C8AB91BB81092C000E1EC1C
S11300A0F0E01082808188698083E2ECF0E01082C5
S11300B080818660808387E690E09093C50080937A
S11300C0C40014B884B18FEF84B915B80895F894B6
S11300D00E944800789408959091C00095FFFCCF49
S11300E08093C60008950E9467008CE60E946C000D
S11300F085E60E946C0085E60E946C0082E70E94FF
S11301006C0080E20E946C0085E60E946C008CE624
S11301100E946C0080E20E946C0080E50E946C00EA
S11301208FE40E946C0084E50E946C00FFCF1F9254
S11301300F920FB60F9211242F933F934F935F9317
S11301406F937F938F939F93AF93BF93CF93EF93CB
S1130150FF93C091C6008C2F0E946C008C2F8F736C
S113016085B9C07CC09300018BB1807C8BB99BB1F5
S113017080910001892B8BB9FF91EF91CF91BF91B1
S1130180AF919F918F917F916F915F914F913F912B
S11301902F910F900FBE0F901F901895F894FFCFDA
S9030000FC
