:100000000C9434000C943E000C943E000C943E0082
:100010000C943E000C943E000C943E000C943E0068
:100020000C943E000C943E000C943E000C943E0058
:100030000C943E000C943E000C943E000C943E0048
:100040000C943E000C943E000C943E000C943E0038
:100050000C943E000C943E000C943E000C943E0028
:100060000C943E000C943E0011241FBECFEFD8E04C
:10007000DEBFCDBF0E9465000C9489000C94000087
:100080001AB88AB182608AB91092C000E1ECF0E03F
:100090001082808188698083E2ECF0E010828081A8
:1000A0008660808387E690E09093C5008093C400CB
:1000B0000895F8940E944000789408959091C000AB
:1000C00095FFFCCF8093C60008950E9459008CE6EE
:1000D0000E945E0085E60E945E0085E60E945E004A
:1000E00082E70E945E0080E20E945E0085E60E9438
:1000F0005E008CE60E945E0080E20E945E0080E569
:100100000E945E008FE40E945E0084E50E945E0013
:06011000FFCFF894FFCFC1
:00000001FF
