S00C00004C4142362E7372656313
S11300000C943C000C9459000C9459000C94590025
S11300100C9459000C9459000C9459000C945900F8
S11300200C9459000C9459000C9459000C945900E8
S11300300C9459000C9459000C9459000C945900D8
S11300400C9459000C9459000C9475010C945900AB
S11300500C9459000C94CB010C9459000C94590045
S11300600C9459000C945900B30084008A00900049
S113007096009C00A200A80011241FBECFEFD8E078
S1130080DEBFCDBF11E0A0E0B1E0E8EFF9E002C0CF
S113009005900D92AE35B107D9F721E0AEE5B1E098
S11300A001C01D92AD37B207E1F70E944A010C94DA
S11300B0FA040C9400000F9310927C00811106C086
S11300C0ACE7B0E08C918F7D8C9305C0ACE7B0E0D9
S11300D08C9180628C93613019F0653039F00BC0DB
S11300E0ACE7B0E08C91806C8C9305C0ACE7B0E0D9
S11300F08C9180648C9350E04830510578F5FA0176
S1130100EC5CFF4F0C940A02ECE7F0E08081816024
S1130110808329C0ECE7F0E080818260808323C083
S1130120ECE7F0E08081836080831DC0ECE7F0E0C1
S113013080818460808317C0ECE7F0E08081856073
S1130140808311C0ECE7F0E08081866080830BC07F
S1130150ECE7F0E080818760808305C0ECE7F0E0A5
S113016080818660808310927A00211106C0EAE7BC
S1130170F0E08081877F808305C0EAE7F0E080813A
S1130180886080830031D9F038F4043061F008309D
S113019081F0023061F530C00034E9F0003809F133
S11301A0003229F512C0EAE7F0E0808182608083A2
S11301B023C0EAE7F0E08081836080831DC0EAE722
S11301C0F0E080818460808317C0EAE7F0E08081FA
S11301D08560808311C0EAE7F0E0808186608083D7
S11301E00BC0EAE7F0E080818760808305C0EAE71E
S11301F0F0E0808187608083EAE7F0E08081806CB2
S113020080830F9108951AB88AB1826C8AB91BB899
S11302101092C000E1ECF0E0108280818869808354
S1130220E2ECF0E0108280818660808387E690E0D3
S11302309093C5008093C40014B884B18FEF84B93F
S113024015B808950F93F8940E94030100E821E083
S113025040E065E081E00E945B0078940F9108958E
S11302609091C00095FFFCCF8093C60008950F9332
S11302701F93CF938C01C0E003C00E943001CF5F75
S1130280F801EC0FF11D80818111F7CFCF911F91FF
S11302900F9108950E94220180910001813099F408
S11302A01092000181E091E00E94370189E191E020
S11302B00E94370186E291E00E94370187E191E0D4
S11302C00E943701E9CF833039F781E08093000140
S11302D080917C010E94300187E191E00E94370106
S11302E087E191E00E943701D7CF1F920F920FB69A
S11302F00F9211242F933F934F935F936F937F93A8
S11303008F939F93AF93BF93EF93FF9390910001CB
S1130310923021F482E380937C0104C08091C60072
S113032080937C0180917C01813319F0823369F0E0
S11303301EC08EE591E00E94370187E191E00E94A2
S1130340370181E08093000115C0923041F480911F
S1130350C60080937C0183E0809300010BC087E397
S113036091E00E94370182E08093000103C081E0A4
S113037080930001FF91EF91BF91AF919F918F9175
S11303807F916F915F914F913F912F910F900FBE8D
S11303900F901F9018951F920F920FB60F92112471
S11303A00F932F933F934F935F936F937F938F9309
S11303B09F93AF93BF93EF93FF93809179001F9224
S11303C08F938AE491E09F938F938EE591E09F93BE
S11303D08F930E94100200E821E040E065E081E094
S11303E00E945B000F900F900F900F900F900F9052
S11303F0FF91EF91BF91AF919F918F917F916F91F9
S11304005F914F913F912F910F910F900FBE0F90DD
S11304101F901895EE0FFF1F0590F491E02D09949D
S1130420AEE0B0E0E6E1F2E00C94D1040D891E895F
S113043086E08C831A8309838FEF9FE79E838D83E5
S1130440AE01475E5F4F6F89788DCE0101960E94A1
S11304503202EF81F885E00FF11F10822E96E4E05E
S11304600C94ED04ABE0B0E0E8E3F2E00C94C304D8
S11304706C017B018A01FC0117821682838181FF52
S1130480CCC1CE0101963C01F6019381F70193FDA5
S1130490859193FF81917F01882309F4BAC1853244
S11304A039F493FD859193FF81917F01853229F47D
S11304B0B60190E00E942904E7CF912C212C312C25
S11304C0FFE1F315D8F08B3279F038F4803279F00B
S11304D08332A1F4232D20611DC08D3261F080335D
S11304E069F4232D216016C0832D8260382EE32DFC
S11304F0E4603E2E2AC0F32DF8601DC037FC2DC0E9
S113050020ED280F2A3040F08E32B9F436FC81C138
S1130510232D2064322E19C036FE06C08AE0989E30
S1130520200D1124922E11C0EAE02E9E200D1124DC
S1130530222EF32DF0623F2E08C08C3621F4832D39
S11305408068382E02C0883641F4F70193FD859106
S113055093FF81917F018111B3CF982F9F7D955493
S1130560933028F40C5F1F4F9FE399830DC08336AB
S113057031F0833771F0833509F059C021C0F80197
S1130580808189830E5F1F4F88248394912C5301AB
S113059013C02801F2E04F0E511CF801A080B18075
S11305A036FE03C0692D70E002C06FEF7FEFC50116
S11305B00E941E044C018201F32DFF773F2E16C0CA
S11305C0280122E0420E511CF801A080B18036FEC1
S11305D003C0692D70E002C06FEF7FEFC5010E9478
S11305E013044C01F32DF0683F2E820133FC1BC031
S11305F0822D90E088169906B0F4B60180E290E06E
S11306000E9429042A94F4CFF50137FC859137FE22
S113061081915F01B60190E00E94290421102A947F
S113062021E0821A91088114910471F7E8C084369C
S113063011F0893641F5F80137FE07C060817181F8
S1130640828193810C5F1F4F08C060817181072EE6
S1130650000C880B990B0E5F1F4FF32DFF763F2E76
S113066097FF09C090958095709561957F4F8F4F46
S11306709F4FF0683F2E2AE030E0A3010E946504FA
S1130680882E861845C0853731F4232D2F7EB22E4F
S11306902AE030E025C0932D997FB92E8F36C1F022
S11306A018F4883579F0B5C0803719F0883721F00F
S11306B0B0C0E92FE061BE2EB4FE0DC0FB2DF46086
S11306C0BF2E09C034FE0AC0292F2660B22E06C0F0
S11306D028E030E005C020E130E002C020E132E053
S11306E0F801B7FE07C060817181828193810C5F3C
S11306F01F4F06C06081718180E090E00E5F1F4F44
S1130700A3010E946504882E8618FB2DFF773F2ED7
S113071036FE0DC0232D2E7FA22E891458F434FEEC
S11307200BC032FC09C0832D8E7EA82E05C0B82CC8
S1130730A32C03C0B82C01C0B92CA4FE0FC0FE0129
S1130740E80DF11D8081803321F49A2D997EA92E24
S113075009C0A2FE06C0B394B39404C08A2D86785F
S113076009F0B394A3FC11C0A0FE06C0B21488F42F
S1130770280C922C9B180EC0B21460F4B60180E2CF
S113078090E00E942904B394F7CFB21418F42B1804
S113079002C0982C212CA4FE10C0B60180E390E086
S11307A00E942904A2FE17C0A1FC03C088E790E0C0
S11307B002C088E590E0B6010CC08A2D867859F015
S11307C0A1FE02C08BE201C080E2A7FC8DE2B6016B
S11307D090E00E942904891438F4B60180E390E083
S11307E00E9429049A94F7CF8A94F301E80DF11D2D
S11307F08081B60190E00E9429048110F5CF222067
S113080009F442CEB60180E290E00E9429042A94C1
S1130810F6CFF6018681978102C08FEF9FEF2B966A
S1130820E2E10C94DF04FC0105906150704001107A
S1130830D8F7809590958E0F9F1F0895FC01615005
S1130840704001900110D8F7809590958E0F9F1FEE
S113085008950F931F93CF93DF93FB01238121FD11
S113086003C08FEF9FEF2CC022FF16C04681578133
S1130870248135814217530744F4A081B1819D013D
S11308802F5F3F4F318320838C93268137812F5FE5
S11308903F4F3783268314C08B01EC01FB01008496
S11308A0F185E02D0995892BE1F6D80116968D91F5
S11308B09C911797019617969C938E931697CE0149
S11308C0DF91CF911F910F910895FA01AA27283043
S11308D051F1203181F1E8946F936E7F6E5F7F4F09
S11308E08F4F9F4FAF4FB1E03ED0B4E03CD0670F85
S11308F0781F891F9A1FA11D680F791F8A1F911DD8
S1130900A11D6A0F711D811D911DA11D20D009F427
S113091068943F912AE0269F11243019305D319369
S1130920DEF6CF010895462F4770405D4193B3E052
S11309300FD0C9F7F6CF462F4F70405D4A3318F0F9
S1130940495D31FD4052419302D0A9F7EACFB4E0AA
S1130950A6959795879577956795BA95C9F7009762
S11309606105710508959B01AC010A2E0694579503
S1130970479537952795BA95C9F7620F731F841F5A
S1130980951FA01D08952F923F924F925F926F92F0
S11309907F928F929F92AF92BF92CF92DF92EF920B
S11309A0FF920F931F93CF93DF93CDB7DEB7CA1B8C
S11309B0DB0B0FB6F894DEBF0FBECDBF09942A88B7
S11309C0398848885F846E847D848C849B84AA845F
S11309D0B984C884DF80EE80FD800C811B81AA81EC
S11309E0B981CE0FD11D0FB6F894DEBF0FBECDBFB7
S10B09F0ED010895F894FFCF16
S11309F80153656C656363696F6E6520756E61206C
S1130A086F706369F36E3A0A003129204C65657288
S1130A1820504F540A003229204D6F73747261724A
S1130A2820417363690A00456E76696520756E20F6
S1130A3863617261637465720A004C61206C65635A
S1110A48747572612065733A2025640A0000FB
S9030000FC
