:100000000C9434000C9446000C9446000C9446006A
:100010000C947A000C9446000C9446000C94460014
:100020000C9446000C9446000C9446000C94460038
:100030000C9446000C9446000C9446000C94460028
:100040000C9446000C9446000C9446000C94460018
:100050000C9446000C9446000C9446000C94460008
:100060000C9446000C94460011241FBECFEFD8E03C
:10007000DEBFCDBF21E0A0E0B1E001C01D92A23003
:10008000B207E1F70E945F000C9495000C94000009
:1000900017B888B1836088B98FEF8AB91BB884B16B
:1000A000876084B915B8E8E6F0E0808182608083DB
:1000B000ECE6F0E0808183608083789408950E946C
:1000C000480080910101813019F0823051F0F9CF60
:1000D000809100018F5F809300018BB91092010124
:1000E000F0CF809100018150809300018BB9109274
:1000F0000101E7CF1F920F920FB60F9211248F9339
:1001000083B180FD04C081E08093010108C081FDBE
:1001100004C082E08093010102C0109201018F911E
:0E0120000F900FBE0F901F901895F894FFCF10
:00000001FF
